:100000000C945D000C9485000C9485000C94850084
:100010000C9485000C9485000C9485000C9485004C
:100020000C9485000C9485000C9485000C9450036E
:100030000C9485000C9485000C9485000C9485002C
:100040000C9406030C9485000C9485000C94850098
:100050000C9485000C9485000C9485000C9485000C
:100060000C9485000C94850000000008000201003B
:100070000003040700000000000000000000000072
:10008000250028002B0000000000240027002A0083
:10009000040404040404040402020202020203032E
:1000A0000303030301020408102040800102040836
:1000B0001020010204081020180511241FBECFEFE4
:1000C000D8E0DEBFCDBF11E0A0E0B1E0E2E8F4E1AE
:1000D00002C005900D92A431B107D9F721E0A4E147
:1000E000B1E001C01D92A33CB207E1F710E0CDE5FD
:1000F000D0E004C02197FE010E949F07CC35D107B4
:10010000C9F70E940C040C943F0A0C94000090E084
:10011000FC01E859FF4F2491FC01EC55FF4F34914D
:10012000FC01E057FF4FE491EE23C9F0222339F0A0
:10013000233001F1A8F4213019F1223029F1F0E047
:10014000EE0FFF1FE458FF4FA591B4918FB7F894BD
:10015000EC91611126C030953E233C938FBF0895EA
:100160002730A9F02830C9F0243049F78091800069
:100170008F7D03C0809180008F7780938000DFCFD8
:1001800084B58F7784BDDBCF84B58F7DFBCF809125
:10019000B0008F778093B000D2CF8091B0008F7D78
:1001A000F9CF3E2BDACF3FB7F8948091960190912A
:1001B0009701A0919801B091990126B5A89B05C01F
:1001C0002F3F19F00196A11DB11D3FBFBA2FA92FD6
:1001D000982F8827BC01CD01620F711D811D911DD3
:1001E00042E0660F771F881F991F4A95D1F708953F
:1001F0008F929F92AF92BF92CF92DF92EF92FF9237
:100200004B015C010E94D3006B017C010E94D30072
:100210006C197D098E099F09683E7340810591051F
:10022000A8F321E0821A9108A108B10888EEC80E4F
:1002300083E0D81EE11CF11C81149104A104B104D7
:1002400029F7FF90EF90DF90CF90BF90AF909F90F5
:100250008F900895CF92DF92EF92FF92CF93DF932A
:10026000EC016A017B016A8D7B8D072E000C880BE7
:10027000990B0E94DC05A70196010E943B062A8586
:100280003B854C855D850E94A6070E9412089B0154
:10029000603242E07407CCF52D8DE8E8CE2ED12CEB
:1002A000C21AD10827FDD394CC0CDD1CCC0CDD1C6C
:1002B0000D2C000CEE08FF084E8D28E532E0241BC3
:1002C000310947FD3395220F331F220F331F032EB1
:1002D000000C440B550B2C193D094E095F09DB013D
:1002E000653B710514F0A4EBB0E0B7FF02C0B0E0CD
:1002F000A0E00E94230724EB30E040E050E00E94A1
:10030000F9062C0D3D1D4E1D5F1DEC8DEC3070F57A
:100310004D8D88E890E0841B910947FD9395880FE7
:10032000991F880F991F281739077CF04E8D88E593
:1003300092E0841B910947FD9395880F991F880FC0
:10034000991F281739070CF4C9010297880F991FC4
:100350004FB7F8942E2F30E0F901EE0FFF1FE20F98
:10036000F31FE656FE4F928381834FBFDF91CF91FB
:10037000FF90EF90DF90CF900895CF93DF93EC0143
:1003800088819981009711F00E94E90819821882EA
:100390001D821C821B821A82DF91CF9108950F93D8
:1003A0001F93CF93DF93EC0188819981009759F0D7
:1003B0002A813B812617370730F081E0DF91CF910A
:1003C0001F910F9108958B016F5F7F4F0E947209FB
:1003D000009759F0998388831B830A832C813D8180
:1003E000232B59F7FC011082E8CF80E0E7CFEF9292
:1003F000FF920F931F93CF93DF938C017B01EB014F
:1004000009900020E9F72197C61BD70BBE010E9477
:10041000CF01811109C0C801DF91CF911F910F91C8
:10042000FF90EF900C94BD01F801D583C483B70110
:1004300080819181DF91CF911F910F91FF90EF907B
:100440000C94380ACF92DF92EF92FF920F931F9392
:10045000CF93DF93EC017B018C010C5F1F4F1D825A
:100460001C821F821E821986188662E171E0C80113
:100470000E94F7018091BE018C3008F04CC091E0E1
:10048000980F9093BE018C8F90E0FC01EE0FFF1F40
:10049000E80FF91FE656FE4F88EB9BE092838183BD
:1004A00084E090E09983888380E090E0A4EBB2E45C
:1004B0008A879B87AC87BD871E861F86188A198A04
:1004C00080E090E0ACE8B2EC8A8B9B8BAC8BBD8B70
:1004D00080E090E0ACE8B2E48E8B9F8BA88FB98F60
:1004E00081E090E09B8F8A8F1B821A820E151F0578
:1004F000E1F0F701C080D180C114D10441F0E48063
:10050000F580B701C8010E94CF01811107C0C80161
:100510000E94BD010AC08FEF8C8FC2CFF986E8869A
:10052000B6018C819D810E94380A8C8D8C3008F038
:1005300064C0E8EAF0E02491E4E9F0E084918823E3
:1005400099F090E0880F991FFC01EA57FF4FA591A1
:10055000B491FC01E458FF4F859194918FB7F894C2
:10056000EC91E22BEC938FBF8C8D282F30E0F901BA
:10057000EE0FFF1FE20FF31FE656FE4F9081907CB7
:10058000946090831D8E1E8E2CE0622F0E94930734
:10059000829FB001112430E020E0AB01420F531FD5
:1005A000FA01EE0FFF1FE40FF51FE656FE4F908194
:1005B00096FD16C02F5F3F4F2C30310571F781112A
:1005C0000FC01092800082E080938100109285001D
:1005D00010928400B19A80916F00826080936F00C6
:1005E000EC8D8E2F90E0FC01EE0FFF1FE80FF91F3E
:1005F000E656FE4F808180648083DF91CF911F910A
:100600000F91FF90EF90DF90CF9008951F920F927F
:100610000FB60F9211242F933F938F939F93AF9315
:10062000BF938091920190919301A0919401B09118
:1006300095013091910123E0230F2D3758F5019654
:10064000A11DB11D2093910180939201909393017C
:10065000A0939401B0939501809196019091970198
:10066000A0919801B09199010196A11DB11D8093AF
:10067000960190939701A0939801B0939901BF912F
:10068000AF919F918F913F912F910F900FBE0F903F
:100690001F90189526E8230F0296A11DB11DD2CFF9
:1006A0001F920F920FB60F9211242F933F934F93E7
:1006B0005F936F937F938F939F93AF93BF93CF93EA
:1006C000DF93EF93FF9380911401C091BE01D0E0BE
:1006D00087FF24C01092850010928400809114013D
:1006E0008F5F8093140180911401082E000C990BE8
:1006F0008C179D0724F4809114018C30C4F18091F3
:10070000840090918500049680349C4908F47AC056
:100710008091840090918500049676C080911401A8
:10072000082E000C990B8C179D07C4F6E09114015C
:100730008E2FEE0F990BFC01EE0FFF1FE80FF91F34
:10074000E656FE4F808186FFC9CFE09114018E2FBF
:10075000EE0F990BFC01EE0FFF1FE80FF91FE65695
:10076000FE4F808160E08F730E948700B7CF209199
:10077000840030918500E09114018E2FEE0F990BCB
:10078000FC01EE0FFF1FE80FF91FE656FE4F8181B7
:100790009281820F931F9093890080938800E0914B
:1007A00014018E2FEE0F990BFC01EE0FFF1FE80FC7
:1007B000F91FE656FE4F808186FF11C0E0911401BB
:1007C0008E2FEE0F990BFC01EE0FFF1FE80FF91FA4
:1007D000E656FE4F808161E08F730E948700FF9193
:1007E000EF91DF91CF91BF91AF919F918F917F91C9
:1007F0006F915F914F913F912F910F900FBE0F908E
:100800001F90189580E49CE990938900809388005C
:100810008FEF80931401E3CFCF93DF93CDB7DEB793
:10082000A5970FB6F894DEBF0FBECDBF789484B500
:10083000826084BD84B5816084BD85B5826085BDDC
:1008400085B5816085BD80916E00816080936E006A
:10085000109281008091810082608093810080915C
:10086000810081608093810080918000816080930D
:1008700080008091B10084608093B1008091B000CD
:1008800081608093B00080917A00846080937A00C8
:1008900080917A00826080937A0080917A008160F2
:1008A00080937A0080917A00806880937A00109219
:1008B000C10019A218A21BA21AA21DA21CA266E0C6
:1008C00071E0CE0180960E94F701BE01605E7F4F0D
:1008D0008E010F5F1F4FC8010E94220288A199A1BB
:1008E000009711F00E94E90880912301811107C04F
:1008F00081E080932301109316010093150168EEA7
:1009000073E080E090E00E94F800D12C80912301F8
:10091000D81608F07FC0ED2DF0E0EE0FFF1FEB5E64
:10092000FE4F008111810115110509F471C0F12CF0
:10093000E12CB7010F2C000C880B990B0E94DC05F1
:100940002B013C01F80186889788A08CB18CA50109
:1009500094010E94D50518167CF0B301A201C801CC
:100960000E942A0164EF71E080E090E00E94F800AC
:10097000F4E1EF0EF11CDDCFC501B4010E941208B5
:100980007B01B7010F2C000C880B990B0E94DC0532
:100990002B013C01F80182889388A488B588A501C1
:1009A00094010E94480887FD0FC0B301A201C8014D
:1009B0000E942A0164EF71E080E090E00E94F8005C
:1009C000F4E1EF1AF108DDCFC501B4010E9412086D
:1009D0007B011E141F04B4F0B7010F2C000C880B10
:1009E000990B0E94DC05AB01BC01C8010E942A01E1
:1009F00064EF71E080E090E00E94F80084E1E80E8E
:100A0000F11CE7CF40E050E0BA01C8010E942A0182
:100A1000D3947CCF8D819E81009711F00E94E908CC
:100A200000E010E001151105E9F30E940000FACF83
:100A3000E5E1F1E08FEF9FEF948383831282978348
:100A4000868315829287818710869587848713868F
:100A500016861786108A118A128A138A148A158AB2
:100A6000168A178A108E118E128E138E148E158E82
:100A7000168E178E10A211A212A213A214A215A2F2
:100A800016A217A210A611A612A613A614A615A6A2
:100A900016A617A610AA11AA12AA13AA14AA15AA72
:100AA00016AA17AA10AE11AE12AE13AE14AE15AE42
:100AB00016AE17AE109255011092560110925701C2
:100AC000109258011092590110925A0110925B0134
:100AD00010925C0110925D0110925E0110925F0114
:100AE00010926001109261011092620110926301F4
:100AF00010926401109265011092660110926701D4
:100B0000109268011092690110926A0110926B01B3
:100B100010926C0110926D0110926E0110926F0193
:100B20001092700110927101109272011092730173
:100B30001092740110927501109276011092770153
:100B4000109278011092790110927A0110927B0133
:100B500010927C0110927D0110927E0110927F0113
:100B600010928001109281011092820110928301F3
:100B700010928401109285011092860110928701D3
:100B8000109288011092890110928A0110928B01B3
:100B900010928C0110928D0110928E0110928F0193
:100BA000109290011182108208950E94170608F495
:100BB00081E00895E89409C097FB3EF490958095F4
:100BC000709561957F4F8F4F9F4F9923A9F0F92F13
:100BD00096E9BB279395F695879577956795B79591
:100BE000F111F8CFFAF4BB0F11F460FF1BC06F5F77
:100BF0007F4F8F4F9F4F16C0882311F096E911C089
:100C0000772321F09EE8872F762F05C0662371F0A9
:100C100096E8862F70E060E02AF09A95660F771FBD
:100C2000881FDAF7880F9695879597F90895990F99
:100C30000008550FAA0BE0E8FEEF16161706E807A6
:100C4000F907C0F012161306E407F50798F0621BC7
:100C5000730B840B950B39F40A2661F0232B242B9C
:100C6000252B21F408950A2609F4A140A6958FEFBB
:100C7000811D811D08950E944E060C94BF060E949E
:100C8000B10638F00E94B80620F0952311F00C94BC
:100C9000A8060C94AE0611240C94F3060E94D0060C
:100CA00070F3959FC1F3950F50E0551F629FF001BF
:100CB000729FBB27F00DB11D639FAA27F00DB11DD8
:100CC000AA1F649F6627B00DA11D661F829F222761
:100CD000B00DA11D621F739FB00DA11D621F839FE8
:100CE000A00D611D221F749F3327A00D611D231FBE
:100CF000849F600D211D822F762F6A2F11249F570C
:100D000050409AF0F1F088234AF0EE0FFF1FBB1F0E
:100D1000661F771F881F91505040A9F79E3F5105CD
:100D200080F00C94A8060C94F3065F3FE4F3983E21
:100D3000D4F3869577956795B795F795E7959F5F77
:100D4000C1F7FE2B880F911D9695879597F9089509
:100D500097F99F6780E870E060E008959FEF80EC6E
:100D6000089500240A941616170618060906089511
:100D700000240A9412161306140605060895092E77
:100D80000394000C11F4882352F0BB0F40F4BF2BE6
:100D900011F460FF04C06F5F7F4F8F4F9F4F089526
:100DA00057FD9058440F551F59F05F3F71F047951C
:100DB000880F97FB991F61F09F3F79F08795089501
:100DC000121613061406551FF2CF4695F1DF08C020
:100DD000161617061806991FF1CF8695710561053D
:100DE00008940895E894BB2766277727CB0197F9E5
:100DF0000895052E97FB1EF400940E94100757FDDE
:100E000007D00E94620707FC03D04EF40C94100731
:100E100050954095309521953F4F4F4F5F4F089526
:100E200090958095709561957F4F8F4F9F4F089556
:100E30000E948407A59F900DB49F900DA49F800DE4
:100E4000911D11240895B7FF0C9418070E941807EC
:100E5000821B930B08952F923F924F925F926F9255
:100E60007F928F929F92AF92BF92CF92DF92EF923A
:100E7000FF920F931F93CF93DF93CDB7DEB7CA1BBB
:100E8000DB0B0FB6F894DEBF0FBECDBF09942A88E6
:100E9000398848885F846E847D848C849B84AA848E
:100EA000B984C884DF80EE80FD800C811B81AA811B
:100EB000B981CE0FD11D0FB6F894DEBF0FBECDBFE6
:100EC000ED010895A1E21A2EAA1BBB1BFD010DC066
:100ED000AA1FBB1FEE1FFF1FA217B307E407F507EA
:100EE00020F0A21BB30BE40BF50B661F771F881FC6
:100EF000991F1A9469F760957095809590959B015C
:100F0000AC01BD01CF010895A29FB001B39FC00104
:100F1000A39F700D811D1124911DB29F700D811D25
:100F20001124911D0895991B79E004C0991F96170B
:100F300008F0961B881F7A95C9F780950895EE0FE3
:100F4000FF1F0590F491E02D09945058BB27AA2764
:100F50000E94BD070C94BF060E94B10638F00E94A3
:100F6000B80620F039F49F3F19F426F40C94AE062D
:100F70000EF4E095E7FB0C94A806E92F0E94D0063A
:100F800058F3BA17620773078407950720F079F4BE
:100F9000A6F50C94F2060EF4E0950B2EBA2FA02DB8
:100FA0000B01B90190010C01CA01A0011124FF2716
:100FB000591B99F0593F50F4503E68F11A16F04011
:100FC000A22F232F342F4427585FF3CF4695379510
:100FD0002795A795F0405395C9F77EF41F16BA0BD5
:100FE000620B730B840BBAF09150A1F0FF0FBB1F83
:100FF000661F771F881FC2F70EC0BA0F621F731FCC
:10100000841F48F4879577956795B795F7959E3F28
:1010100008F0B0CF9395880F08F09927EE0F9795B9
:10102000879508950E9419086894B1110C94F306ED
:1010300008950E94D80688F09F5798F0B92F9927F5
:10104000B751B0F0E1F0660F771F881F991F1AF0B3
:10105000BA95C9F714C0B13091F00E94F206B1E020
:1010600008950C94F206672F782F8827B85F39F01F
:10107000B93FCCF3869577956795B395D9F73EF44C
:1010800090958095709561957F4F8F4F9F4F0895F4
:101090000E94170608F48FEF08950F931F93CF93C4
:1010A000DF938230910510F482E090E0E091C1017D
:1010B000F091C20130E020E0B0E0A0E0309799F478
:1010C0002115310509F44AC0281B390B243031059C
:1010D000D8F58A819B816115710589F1FB019383A4
:1010E0008283FE0111C04081518102811381481722
:1010F0005907E0F04817590799F4109761F01296D4
:101100000C93129713961C933296CF01DF91CF91D7
:101110001F910F9108950093C1011093C201F4CF64
:101120002115310551F04217530738F0A901DB01B1
:101130009A01BD01DF01F801C1CFEF01F9CF909312
:10114000C2018093C101CDCFFE01E20FF31F819355
:1011500091932250310939832883D7CF2091BF0141
:101160003091C001232B41F4209102013091030101
:101170003093C0012093BF01209100013091010103
:101180002115310541F42DB73EB74091040150912E
:101190000501241B350BE091BF01F091C001E2175E
:1011A000F307A0F42E1B3F0B2817390778F0AC018A
:1011B0004E5F5F4F2417350748F04E0F5F1F509367
:1011C000C0014093BF01819391939FCFF0E0E0E095
:1011D0009CCFCF93DF930097E9F0FC013297138205
:1011E0001282A091C101B091C201ED0130E020E076
:1011F0001097A1F420813181820F931F2091BF01AC
:101200003091C0012817390709F061C0F093C0017F
:10121000E093BF01DF91CF910895EA01CE17DF0778
:10122000E8F54A815B819E0141155105B1F7E9015D
:10123000FB83EA8349915991C40FD51FEC17FD0731
:1012400061F4808191810296840F951FE901998351
:101250008883828193819B838A83F0E0E0E0129609
:101260008D919C9113970097B9F52D913C91119711
:10127000CD010296820F931F2091BF013091C001D2
:101280002817390739F6309751F51092C20110929C
:10129000C101B093C001A093BF01BCCFD383C2836F
:1012A00040815181840F951FC817D90761F44E5FA3
:1012B0005F4F88819981480F591F518340838A81EC
:1012C0009B81938382832115310509F0B0CFF09380
:1012D000C201E093C1019ECFFD01DC01C0CF1382AA
:1012E0001282D7CFB0E0A0E0E8E7F9E00C942D0738
:1012F0008C01009751F4CB010E944D088C01C8016C
:10130000CDB7DEB7E0E10C944907FC01E60FF71F0B
:101310009C0122503109E217F30708F49DC0D9015E
:10132000CD91DC911197C617D70798F0C530D1053C
:1013300030F3CE0104978617970708F3C61BD70B27
:101340002297C193D1936D937C93CF010E94E908BA
:10135000D6CF5B01AC1ABD0A4C018C0E9D1EA0912C
:10136000C101B091C201512C412CF12CE12C1097FC
:1013700031F58091BF019091C0018815990509F060
:101380005CC04616570608F058C080910001909145
:101390000101009741F48DB79EB74091040150912F
:1013A0000501841B950BE817F90708F055C0F09369
:1013B000C001E093BF01F90171836083A0CF8D91DB
:1013C0009C91119712966C90129713967C9013979C
:1013D000A815B90559F56C0142E0C40ED11CCA1418
:1013E000DB0420F1AC014A195B09DA01129615976A
:1013F00080F06282738251834083D9016D937C9324
:10140000E114F10471F0D7011396FC93EE93129757
:1014100076CF22968C0F9D1FF90191838083F30173
:10142000EFCFF093C201E093C10169CF481659068E
:1014300008F42C017D01D3019ACFCB010E944D0805
:101440007C01009749F0AE01B8010E942F0AC80143
:101450000E94E908870153CF10E000E050CFFB0164
:10146000DC0102C001900D9241505040D8F7089520
:10147000FB01DC0101900D920020E1F70895F89442
:02148000FFCF9C
:101482000000C301800041696C65726F6E204C657B
:04149200667400007C
:00000001FF
