:100000000C9436000C945E000C945E000C945E0020
:100010000C945E000C945E000C945E000C945E00E8
:100020000C945E000C945E000C945E000C945E00D8
:100030000C945E000C945E000C945E000C945E00C8
:100040000C945E000C945E000C945E000C945E00B8
:100050000C945E000C945E000C945E000C945E00A8
:100060000C945E000C945E003B02370211241FBE0C
:10007000CFEFD8E0DEBFCDBF22E0AEE3B1E001C0FC
:100080001D92AC39B207E1F711E0A0E0B1E0E6E281
:10009000FDE002C005900D92AE33B107D9F710E034
:1000A000C5E3D0E004C02197FE010E948E04C43352
:1000B000D107C9F70E9472030C9486060C940000C5
:1000C000FC0180819181009711F00C943005089516
:1000D0000F931F93CF93DF938C01EC01C052DF4F3E
:1000E0000C171D0731F06C97CE0104960E9460003A
:1000F000F7CFDF91CF911F910F910895EF92FF926B
:100100000F931F93CF93DF93EC017B018A018881CA
:100110009981009729F02A813B812417350788F4BB
:10012000B8016F5F7F4F0E94B905009791F09983E6
:1001300088831B830A832C813D81232B11F4FC01CE
:1001400010821D830C83B701888199810E947F06EC
:100150000CC088819981009711F00E9430051982A6
:1001600018821D821C821B821A82CE01DF91CF91E0
:100170001F910F91FF90EF900895CF93DF93EC01C3
:10018000FB018617970749F0608171816115710540
:1001900041F0448155810E947E00CE01DF91CF91D4
:1001A000089588819981009711F00E943005198285
:1001B00018821D821C821B821A82EFCF0F931F931D
:1001C000CF93DF93EC018B01FB01808191819983B7
:1001D0008883828193819B838A831D821C821F82F4
:1001E0001E82198618866C5F7F4FCE0104960E948E
:1001F000BD00F80182859385A485B5858A879B8794
:10020000AC87BD8786859785A089B1898E879F87B2
:10021000A88BB98B82899389A489B5898A8B9B8B9A
:10022000AC8BBD8B86899789A08DB18D8E8B9F8B72
:10023000A88FB98F828D938D9B8F8A8FDF91CF91FD
:100240001F910F910895AF92BF92CF92DF92EF92DC
:10025000FF920F931F93CF93DF938C01EB017A01F1
:100260006B012CEEC20ED11CF6018081883008F0A3
:100270004CC091E0980F9083FCE18F9FC001112446
:100280005B01A80EB91EFA0120813181F50131838D
:100290002083FA0122813381F50133832283BA015D
:1002A0006C5F7F4F04968C0F9D1F0E94BD00F7016D
:1002B00082859385A485B585F50182879387A48778
:1002C000B587F70186859785A089B189F50186876D
:1002D0009787A08BB18BF70182899389A489B5890F
:1002E000F501828B938BA48BB58BF7018689978957
:1002F000A08DB18DF501868B978BA08FB18FF70103
:10030000828D938DF501938F828FF12CE12CBE01AC
:100310006E0D7F1DC8018E0D9F1D0E94DE00FCE149
:10032000EF0EF11C20EEE216F10489F7FE01E05217
:10033000FF4FD801A052BF4F2191319141912D9390
:100340003D934D93EC15FD05B9F78081F801E4511B
:10035000FF4F8083FE01E351FF4F8081F801E3519D
:10036000FF4F8083D801A251BF4FFE01E251FF4FE2
:1003700084E201900D928A95E1F7D801AE5EBE4FFE
:10038000FE01EE5EFE4F84E201900D928A95E1F748
:10039000D801AA5CBE4FFE01EA5CFE4F84E20190E8
:1003A0000D928A95E1F7C801DF91CF911F910F91CE
:1003B000FF90EF90DF90CF90BF90AF900895FC0139
:1003C000118210821382128215821482FB01019025
:1003D0000020E9F73197AF01461B570B0C947E00C4
:1003E0008F929F92AF92BF92CF92DF92EF92FF9245
:1003F0000F931F93CF93DF93EC015B017A016901A7
:100400004C0184E0880E911C62E171E0C4010E94FD
:10041000DF01B982A8821A861B861C861D861E866D
:100420001F86188A198A80E090E0ACE8B2EC8A8BCB
:100430009B8BAC8BBD8B80E090E0ACE8B2E48E8B04
:100440009F8BA88FB98F1B8F0A8FDB82CA82B7015F
:10045000C401DF91CF911F910F91FF90EF90DF903A
:10046000CF90BF90AF909F908F900C94BD008EE383
:1004700091E00C946800CF92DF92EF92FF920F937D
:100480001F93CF93DF93CEE3D1E00FEF1FEFCC2488
:10049000C394D12C7E0184E0E80EF11C62E171E08E
:1004A000C7010E94DF01198308831B821A8250E072
:1004B00040E062E171E0C7010E947E001A861B865F
:1004C0001C861D861E861F86188A198A1A8A1B8A10
:1004D0001C8A1D8A1E8A1F8A188E198EDB8ECA8E70
:1004E0006C9682E0CE31D807A9F6109320020093D3
:1004F0001F0210921E0210932302009322021092F8
:1005000021021093260200932502109224021093D8
:100510002902009328021092270210922A021092B8
:100520002B0210922C0210922D0210922E02109289
:100530002F02109230021092310210923202109269
:100540003302109234021092350210923602109249
:100550003702109238021092390210923A02109229
:100560003B0210923C0210923D0210923E02109209
:100570003F021092400210924102109242021092E9
:1005800043021092440210924502109246021092C9
:100590004702109248021092490210924A021092A9
:1005A0004B0210924C0210924D0210924E02109289
:1005B0004F02109250021092510210925202109269
:1005C0005302109254021092550210925602109249
:1005D0005702109258021092590210925A02109229
:1005E0005B0210925C0210925D0210925E02109209
:1005F0005F021092600210926102109262021092E9
:1006000063021092640210926502109266021092C8
:100610006702109268021092690210926A021092A8
:100620006B0210926C0210926D0210926E02109288
:100630006F02109270021092710210927202109268
:100640007302109274021092750210927602109248
:100650007702109278021092790210927A02109228
:100660007B0210927C0210927D0210927E02109208
:100670007F021092800210928102109282021092E8
:1006800083021092840210928502109286021092C8
:100690008702109288021092890210928A021092A8
:1006A0008B0210928C0210928D0210928E02109288
:1006B0008F02109290021092910210929202109268
:1006C0009302109294021092950210929602109248
:1006D0009702DF91CF911F910F91FF90EF90DF90E4
:1006E000CF900895CF93DF93CDB7DEB7C854D640EF
:1006F0000FB6F894DEBF0FBECDBF66E071E0CE014D
:1007000001960E94DF0101E010E030E020E0AE0140
:100710004F5F5F4F70E060E0CE0187529A4F0E94BA
:10072000F001CE0101960E94600063E171E0CE010C
:1007300001960E94DF010FEF1FEF30E020E0AE01D5
:100740004F5F5F4F61E070E0CE018B509A4F0E9487
:10075000F001CE0101960E94600061E271E0CE01DD
:1007600001960E94DF0101E010E021E030E0AE01DF
:100770004F5F5F4F62E070E0CE018F5E994F0E9445
:10078000F001CE0101960E9460006FE271E0CE019F
:1007900001960E94DF010FEF1FEF21E030E0AE0174
:1007A0004F5F5F4F63E070E0CE01835D994F0E9421
:1007B000F001CE0101960E946000BE0167527A4F9F
:1007C000CE0183549A4F0E94DE00AE0143545A4F2B
:1007D0006EE371E0CE0101960E942301BE016B50D1
:1007E0007A4FCE018F559A4F0E94DE00AE014F55D1
:1007F0005A4FBE016F5F7F4FCE01855A9E4F0E94B8
:100800002301BE016F5E794FCE018B579A4F0E9434
:10081000DE00AE014B575A4FBE01655A7E4FCE01E6
:100820008B549D4F0E942301BE01635D794FCE0121
:1008300087599A4F0E94DE00AE0147595A4FBE01B8
:100840006B547D4FCE01815F9B4F0E942301CE01EF
:10085000815F9B4F0E94680089E695E08C0F9D1F89
:1008600004960E946000CE018B549D4F0E94680048
:1008700085E895E08C0F9D1F04960E946000CE01D4
:10088000855A9E4F0E94680081EA95E08C0F9D1F5B
:1008900004960E946000CE0101960E9468008DEBD4
:1008A00095E08C0F9D1F04960E946000FFCF2F9251
:1008B0003F924F925F926F927F928F929F92AF92F0
:1008C000BF92CF92DF92EF92FF920F931F93CF933D
:1008D000DF93CDB7DEB7CA1BDB0B0FB6F894DEBFD4
:1008E0000FBECDBF09942A88398848885F846E84FA
:1008F0007D848C849B84AA84B984C884DF80EE8044
:10090000FD800C811B81AA81B981CE0FD11D0FB64C
:10091000F894DEBF0FBECDBFED010895EE0FFF1FAF
:100920000590F491E02D09940F931F93CF93DF93DB
:100930008230910510F482E090E0E0919A02F0910B
:100940009B0230E020E0B0E0A0E0309799F4211560
:10095000310509F44AC0281B390B24303105D8F57C
:100960008A819B816115710589F1FB0193838283E3
:10097000FE0111C04081518102811381481759073E
:10098000E0F04817590799F4109761F012960C930C
:10099000129713961C933296CF01DF91CF911F913E
:1009A0000F91089500939A0210939B02F4CF2115A2
:1009B000310551F04217530738F0A901DB019A01C4
:1009C000BD01DF01F801C1CFEF01F9CF90939B0288
:1009D00080939A02CDCFFE01E20FF31F8193919392
:1009E0002250310939832883D7CF20919802309142
:1009F0009902232B41F4209102013091030130939D
:100A00009902209398022091000130910101211553
:100A1000310541F42DB73EB74091040150910501D5
:100A2000241B350BE0919802F0919902E217F3072D
:100A3000A0F42E1B3F0B2817390778F0AC014E5F4E
:100A40005F4F2417350748F04E0F5F1F50939902F0
:100A500040939802819391939FCFF0E0E0E09CCF88
:100A6000CF93DF930097E9F0FC0132971382128253
:100A7000A0919A02B0919B02ED0130E020E0109726
:100A8000A1F420813181820F931F2091980230912F
:100A900099022817390709F061C0F0939902E09391
:100AA0009802DF91CF910895EA01CE17DF07E8F5AC
:100AB0004A815B819E0141155105B1F7E901FB8334
:100AC000EA8349915991C40FD51FEC17FD0761F4D2
:100AD000808191810296840F951FE9019983888313
:100AE000828193819B838A83F0E0E0E012968D916E
:100AF0009C9113970097B9F52D913C911197CD01D9
:100B00000296820F931F2091980230919902281724
:100B1000390739F6309751F510929B0210929A02DC
:100B2000B0939902A0939802BCCFD383C283408133
:100B30005181840F951FC817D90761F44E5F5F4F2D
:100B400088819981480F591F518340838A819B81F5
:100B5000938382832115310509F0B0CFF0939B0276
:100B6000E0939A029ECFFD01DC01C0CF1382128276
:100B7000D7CFB0E0A0E0EFEBF5E00C9459048C0186
:100B8000009751F4CB010E9494048C01C801CDB7A9
:100B9000DEB7E0E10C947504FC01E60FF71F9C0141
:100BA00022503109E217F30708F49DC0D901CD9115
:100BB000DC911197C617D70798F0C530D10530F3EF
:100BC000CE0104978617970708F3C61BD70B229709
:100BD000C193D1936D937C93CF010E943005D6CF02
:100BE0005B01AC1ABD0A4C018C0E9D1EA0919A02AD
:100BF000B0919B02512C412CF12CE12C109731F536
:100C000080919802909199028815990509F05CC02D
:100C10004616570608F058C08091000190910101D6
:100C2000009741F48DB79EB74091040150910501A2
:100C3000841B950BE817F90708F055C0F09399024B
:100C4000E0939802F90171836083A0CF8D919C910C
:100C5000119712966C90129713967C901397A81583
:100C6000B90559F56C0142E0C40ED11CCA14DB046D
:100C700020F1AC014A195B09DA011296159780F050
:100C80006282738251834083D9016D937C93E11416
:100C9000F10471F0D7011396FC93EE93129776CF7F
:100CA00022968C0F9D1FF90191838083F301EFCF72
:100CB000F0939B02E0939A0269CF4816590608F414
:100CC0002C017D01D3019ACFCB010E9494047C01B9
:100CD000009749F0AE01B8010E947606C8010E9453
:100CE0003005870153CF10E000E050CFFB01DC015D
:100CF00002C001900D9241505040D8F70895FB0179
:100D0000DC0101900D920020E1F7089510E0C5E3A9
:100D1000D0E004C0FE010E948E042196C633D107A4
:060D2000C9F7F894FFCFB3
:100D260000009C02800041696C65726F6E204C6504
:100D360066740041696C65726F6E205269676874EB
:100D460000456C657661746F72204C65667400456B
:0E0D56006C657661746F722052696768740074
:00000001FF
